:020000040000FA
:100000000C9447050C946F050C946F050C946F05C8
:100010000C946F050C946F050C946F050C946F0590
:100020000C946F050C946F050C946F050C946F0580
:100030000C946F050C946F050C946F050C946F0570
:100040000C9465140C946F050C946F050C946F055B
:100050000C946F050C946F050C946F050C946F0550
:100060000C94AF140C946F0500000000003E5B4F31
:100070005B3E3E6B4F6B3E1C3E7C3E1C183C7E3C08
:10008000181C577D571C1C5E7F5E1C00183C180016
:10009000FFE7C3E7FF0018241800FFE7DBE7FF30A6
:1000A000483A060E2629792926407F050507407F14
:1000B00005253F5A3CE73C5A7F3E1C1C08081C1C87
:1000C0003E7F14227F22145F5F005F5F06097F017D
:1000D0007F006689956A606060606094A2FFA29468
:1000E00008047E040810207E201008082A1C080836
:1000F0001C2A08081E101010100C1E0C1E0C303884
:100100003E3830060E3E0E06000000000000005F84
:1001100000000007000700147F147F14242A7F2AA0
:100120001223130864623649562050000807030062
:10013000001C2241000041221C002A1C7F1C2A08AE
:10014000083E080800807030000808080808000011
:1001500060600020100804023E5149453E00427F85
:10016000400072494949462141494D331814127FD4
:100170001027454545393C4A494931412111090774
:100180003649494936464949291E000014000000F5
:1001900040340000000814224114141414140041C7
:1001A00022140802015909063E415D594E7C121184
:1001B000127C7F494949363E414141227F414141BC
:1001C0003E7F494949417F090909013E4141517337
:1001D0007F0808087F00417F41002040413F017FA8
:1001E000081422417F404040407F021C027F7F0470
:1001F00008107F3E4141413E7F090909063E4151B9
:10020000215E7F09192946264949493203017F01A8
:10021000033F4040403F1F2040201F3F4038403FA9
:10022000631408146303047804036159494D4300BF
:100230007F4141410204081020004141417F0402F6
:10024000010204404040404000030708002054548D
:1002500078407F284444383844444428384444286B
:100260007F385454541800087E090218A4A49C78BE
:100270007F0804047800447D40002040403D007F1A
:100280001028440000417F40007C047804787C08FA
:100290000404783844444438FC18242418182424CE
:1002A00018FC7C08040408485454542404043F44B3
:1002B000243C4040207C1C2040201C3C4030403CE2
:1002C00044281028444C9090907C4464544C440042
:1002D00008364100000077000000413608000201A6
:1002E0000204023C2623263C1EA1A161123A404092
:1002F000207A38545455592155557941225454780F
:1003000042215554784020545579400C1E527212A7
:100310003955555559395454545939555454580030
:1003200000457C410002457D420001457C407D1234
:1003300011127DF0282528F07C5455450020545496
:100340007C547C0A097F4932494949323A44444441
:100350003A324A4848303A4141217A3A424020787C
:10036000009DA0A07D3D4242423D3D4040403D3C7D
:1003700024FF2424487E4943662B2FFC2F2BFF09A2
:1003800029F620C0887E0903205454794100004496
:100390007D413048484A32384040227A007A0A0A81
:1003A000727D0D19317D2629292F282629292926F4
:1003B00030484D4020380808080808080808382F39
:1003C00010C8ACBA2F102834FA00007B00000814C3
:1003D0002A142222142A14085500550055AA55AA99
:1003E00055AAFF55FF55FF000000FF00101010FF39
:1003F00000141414FF001010FF00FF1010F010F094
:10040000141414FC001414F700FF0000FF00FF1484
:1004100014F404FC141417101F10101F101F1414D0
:10042000141F00101010F0000000001F101010101A
:100430001F10101010F010000000FF10101010100E
:1004400010101010FF10000000FF140000FF00FF4C
:1004500000001F10170000FC04F4141417101714E8
:1004600014F404F40000FF00F7141414141414140A
:10047000F700F7141414171410101F101F1414147D
:10048000F4141010F010F000001F101F0000001FE7
:1004900014000000FC140000F010F01010FF10FF1A
:1004A000141414FF141010101F00000000F010FFAF
:1004B000FFFFFFFFF0F0F0F0F0FFFFFF0000000093
:1004C00000FFFF0F0F0F0F0F3844443844FC4A4A17
:1004D0004A347E02020606027E027E0263554941CC
:1004E000633844443C04407E201E2006027E020203
:1004F00099A5E7A5991C2A492A1C4C7201724C3017
:100500004A4D4D303048784830BC625A463D3E49ED
:100510004949007E0101017E2A2A2A2A2A44445F91
:10052000444440514A444040444A51400000FF0185
:1005300003E080FF000008086B6B08361236243693
:10054000060F090F060000181800000010100030F8
:1005500040FF0101001F01011E00191D1712003C80
:100560003C3C3C0000000000000103070F1F3F7FE0
:100570000080C0E0F0F8FCFE00000000240027002E
:100580002A00DB40A4A62EAF2000A1C8D300408DD6
:10059000AED580A800006000000000000000000050
:1005A0000000000000E0000000000000000000006B
:1005B00000000001E000000000000000000000005A
:1005C000000001F00000000000000000000000003A
:1005D0000003F00000000000000000000000000028
:1005E00007F000000000000000000000000000070D
:1005F000F8000000000000000000000000000FF8FC
:1006000000000003C0007E000001E0007F0FF80042
:10061000000003C000FE000001E000FFEFF8000052
:100620000003C000FE000001E000FFFFF800000032
:1006300003C000F00000000F007FFE7FC000000339
:10064000C000F00000000F003FFE7FF83FF1FBCF3D
:10065000FCFEF3BC3DEFE01FFE7FFF7FFBFFDFFEF4
:10066000FEFFBC3DEFE01FC6FFFF7FFBFFDFFEFE8E
:10067000FFBC3DEFE00FE3C7FE787BC3DE1EF0FF5B
:10068000BC3DEF0007FF87FC787BC3DE1EF0F83C23
:100690003DEF0001FFFFF0007BC3C01EF0F03C3DCA
:1006A000EF0001F37FE03FFBC3CFFEF0F03C3DEFF6
:1006B0000003E33F807FFBC3DFFEF0F03C3DEF0033
:1006C00007E73C00787BC3DE1EF0F03C3DEF0007FF
:1006D000FFBE00787BC3DE1EF0F03C3DEF0007FF5D
:1006E000FE00787BC3DE1EF0F03C3DEF000FFFFE06
:1006F000007FFBFFDFFEF0F03FFDEFE00FFFFF00AC
:100700007FFBFFDFFEF0F03FFDEFE00FF9FF003E63
:1007100079F9CF9EF0F01F3DE7E01FF1FF000000E8
:100720000000000000000000001F80FF007FFFFFAE
:10073000FFFFFFFFFFFFFFE01C007F007FFFFFFFC9
:10074000FEB46D888D18E000001F007FFFFFFFFEE4
:1007500095AD7DB577E000000F007FFFFFFFFEA5A0
:10076000AD9D8D19E0000006007FFFFFFFFEB5ADD7
:10077000EDB57EE0000000000001800000000000F8
:1007800000000000038000000000000000000007DF
:10079000C000000000000000000007C000000000D2
:1007A00000000000000FC00000000000000000007A
:1007B0001FE00000000000000000001FE00000003B
:1007C0000000000000003FE000000000000000000A
:1007D000003FF00000000000000000007FF000007B
:1007E00000000000001FF87FF00000000000000083
:1007F0003FFE7FF0000000000000003FFF7FF000A0
:100800000000000000001FFFFBE0000000000000EF
:10081000000FFFF9FFC00000000000000FFFF9FF0C
:10082000F800000000000007FFF1FFFF00000000DB
:10083000000003FC73FFFF80000000000001FE3F8A
:10084000FFFF80000000000000FF1E0FFF000000FF
:10085000000000007FFE1FFC000000000000003FC1
:10086000FFFFF8000000000000000FDFFFE00000C5
:1008700000000000001F19FFC00000000000000081
:100880003F3CFF00000000000000007E7CF80000FC
:100890000000000000007FFE7C000000000000005F
:1008A00000FFFFFC0000000000000000FFFFFE0052
:1008B00000000000000000FFFFFE0000000000003C
:1008C0000001FFEFFE0000000000000001FFCFFE6E
:1008D0000000000000000003FF07FE000000000011
:1008E000000003FC07FE0000000000000003F0030E
:1008F000FE00000000000000018000FE000000007B
:100900000000000000007E00000000000000000069
:10091000003E000000000000000000000C0000008D
:10092000000000078000FC000003C00000000780FA
:1009300001FC000003C0000000078001FC00000370
:10094000C0000000078001E00000001E000000075A
:100950008001E00000001E007FE3F79FF9FDE778CB
:100960007BDFC0FFF7FFBFFDFDFF787BDFC0FFF738
:10097000FFBFFDFDFF787BDFC0F0F787BC3DE1FFE7
:10098000787BDE00F0F787BC3DE1F0787BDE00008D
:10099000F787803DE1E0787BDE007FF7879FFDE110
:1009A000E0787BDE00FFF787BFFDE1E0787BDE00CB
:1009B000F0F787BC3DE1E0787BDE00F0F787BC3DD7
:1009C000E1E0787BDE00F0F787BC3DE1E0787BDE9C
:1009D00000FFF7FFBFFDE1E07FFBDFC0FFF7FFBFD8
:1009E000FDE1E07FFBDFC07CF3F39F3DE1E03E7B78
:1009F000CFC00000000000000000000000FFFFFF6B
:100A0000FFFFFFFFFFFFFFC0FFFFFFFFFD68DB11E0
:100A10001A31C0FFFFFFFFFD2B5AFB6AEFC0FFFF3B
:100A2000FFFFFD4B5B3B1A33C0FFFFFFFFFD6B5B1E
:100A3000DB6AFDC000000000230026002900000042
:100A4000000800020100000304070000000000008D
:100A500000002200FF210001020408102040800154
:100A600002040810200102040810200000000025E4
:100A70000028002B000404040404040404020202FD
:100A800002020203030303030300CE150D1B11240E
:100A90001FBECFEFD8E0DEBFCDBF11E0A0E0B1E0D8
:100AA000E0E6F9E302C005900D92AA3CB107D9F740
:100AB00022E0AAECB1E001C01D92AC3FB207E1F721
:100AC00015E0C6E4D5E004C02197FE010E946C1B2E
:100AD000C534D107C9F70E94BA160C94A31C0C9414
:100AE000000008958F929F92AF92BF92CF92DF92B3
:100AF000EF92FF922091E4023091E502223031051D
:100B0000E8F14C01AA24BB24C72ED82EE92EFF24DD
:100B1000BC2DA62F2091EA02482D222391F0A22F6E
:100B2000B0E0A89DF001A99DF00DB89DF00D112435
:100B30004F2F2C9D60011124BD2D269FC001112433
:100B4000A92FE091F0028091EB029091EC022091AC
:100B5000ED02E2131CC00396E091ED02E80FF92FBD
:100B6000F11D4083E091EE02E80FF92FF11DB083F3
:100B70002091EF02820F911DFC01A083FF90EF9066
:100B8000DF90CF90BF90AF909F908F900895049684
:100B9000E80FF92FF11D1082DFCF08950895AF926D
:100BA000BF92CF92DF92EF92FF920F931F93CF935A
:100BB000DF936C017B018B01040F151FEB015E01BC
:100BC000AE18BF08C017D10759F06991D601ED9151
:100BD000FC910190F081E02DC6010995892B79F7F0
:100BE000C501DF91CF911F910F91FF90EF90DF90A2
:100BF000CF90BF90AF900895833081F028F481307A
:100C000099F08230A9F008958730A9F08830C9F0B2
:100C10008430B1F4809180008F7D03C0809180008A
:100C20008F7780938000089584B58F7784BD089571
:100C300084B58F7DFBCF8091B0008F778093B0001B
:100C400008958091B0008F7DF9CF1F93CF93DF93EC
:100C5000282F30E0F901E25CF54F8491F901E95A5F
:100C6000F54FD491F901EB58F54FC491CC23A9F07D
:100C7000162F81110E94FC05EC2FF0E0EE0FFF1FF4
:100C8000E559F54FA591B4918FB7F894EC911111F6
:100C900008C0D095DE23DC938FBFDF91CF911F91E9
:100CA0000895DE2BF8CFCF93DF9390E0FC01E95A53
:100CB000F54F24918B58954FFC0184918823C9F0FE
:100CC00090E0880F991FFC01E858FA4FA591B49164
:100CD000FC01E559F54FC591D49161110DC09FB745
:100CE000F8948C91209582238C93888128232883E3
:100CF0009FBFDF91CF910895623051F49FB7F89470
:100D00003C91822F809583238C93E8812E2BEFCF0B
:100D10008FB7F894EC912E2B2C938FBFEACF3FB76F
:100D2000F89480917F0290918002A0918102B0910D
:100D3000820226B5A89B05C02F3F19F00196A11D80
:100D4000B11D3FBFBA2FA92F982F8827BC01CD0115
:100D5000620F711D811D911D42E0660F771F881F74
:100D6000991F4A95D1F708958F929F92AF92BF92A3
:100D7000CF92DF92EF92FF924B015C010E948F06AF
:100D80006B017C010E948F066C197D098E099F09F9
:100D9000683E734081059105A8F321E0821A91080D
:100DA000A108B10888EEC80E83E0D81EE11CF11C32
:100DB00081149104A104B10429F7FF90EF90DF9012
:100DC000CF90BF90AF909F908F900895EF92FF9239
:100DD0000F931F93CF93DF93EC01EC80FD806E1592
:100DE0007F050CF070C057FF04C0240F351F50E082
:100DF00040E08E819F81FA01E20FF31F8E179F075B
:100E00001CF49C01241B350B121613060CF05BC05E
:100E1000922F842F8695869586958E9DD0018F9DE5
:100E2000B00D11246A0F7B1FAF8DB8A1A60FB71F9D
:100E3000477049F188E0841B482F682F70E0FB0160
:100E4000E059FA4FE491281708F063C0621B71095A
:100E50002FEF30E002C0359527956A95E2F7E2233F
:100E60000130110539F0B0F10230110561F58C91B6
:100E7000E82702C08C91E82BEC93941720F12C8189
:100E80003D81A20FB31FE92FE41BE83078F0023058
:100E9000110521F58E2F9C9190959C932C813D817D
:100EA000A20FB31F88508830B0F7E770EE2359F0D7
:100EB000F0E0E859FA4FE49101301105F9F010F132
:100EC0000230110519F1DF91CF911F910F91FF9021
:100ED000EF900895E0958C91E823CECF81E0011545
:100EE000110509F480E081959E2F8C932C813D8122
:100EF000A20FB31F98509830C0F7D7CF8C91E82B32
:100F0000EC93E1CFE0958C91E823FACF8C91E82720
:100F1000F7CF0130110509F4ADCFE0F20230110531
:100F200009F4A5CFAE0DBF1DAECF0F931F93CF9386
:100F3000DF9377FF04C0260F371F70E060E0DC010D
:100F40001496CD91DC91FB01E20FF31FCE17DF0762
:100F50001CF49E01261B370B121613064CF5FA01E2
:100F600057FD3796A3E0F595E795AA95E1F7EC9F35
:100F7000D001ED9FB00DFC9FB00D11246A0F7B1FB7
:100F8000DC015F96ED91FC91E60FF71F4770552746
:100F900081E090E001C0880F4A95EAF7482F0130C0
:100FA000110559F0A8F02E0F3F1F02301105E1F096
:100FB000DF91CF911F910F9108952E0F3F1FE217E0
:100FC000F307B1F38191DF011197842B8C93F7CF55
:100FD00080952E0F3F1FE217F30751F39191DF0128
:100FE000119798239C93F7CFE217F30709F38191A8
:100FF000DF01119784278C93F7CF0F931F93FA018A
:10100000DC0156964C9156974230E9F04330A1F1FD
:10101000413061F514964D915C91DA01AE1BBF0B26
:10102000FD01E21BF30B77FD0BC0DC0116964D9121
:101030005C916417750724F4AB01BF010E9495070A
:101040001F910F91089514964D915C91DA01A61BA2
:10105000B70BBD0161507109DC0116964D915C9191
:10106000DA01AE1BBF0BFD01E21BF30B77FDE8CFEE
:10107000AF010E94E606E4CF16964D915C91DA012D
:10108000A61BB70BBD0161507109CDCF0F931F9304
:10109000FA01DC0156964C9156974230A9F0433044
:1010A00091F1413019F514964D915C91DA01AE1B26
:1010B000BF0BFD013197F7FD04C0AB01BF010E94DA
:1010C000E6061F910F91089514964D915C91DA01F7
:1010D000A61BB70BBD01DC0116964D915C91DA01A0
:1010E000AE1BBF0BFD013197621B730BF7FDE9CF00
:1010F000DC0116964D915C91E417F50714F7AF01EA
:101100000E949507DECF16964D915C91DA01A61BE1
:10111000B70BBD01621B730BCECFFC0177FD64C022
:1011200080859185681779070CF05EC057FD5CC01B
:1011300082859385481759070CF056C086898230FE
:10114000B1F0833029F1813041F484819581841B91
:10115000950BAB01BC01615071092130310509F1DA
:1011600008F443C02230310509F463C00895848136
:101170009581DC01A61BB70BBD0161507109868109
:101180009781DC01A41BB50BAD0141505109E5CF9E
:1011900086819781861B970BBA01AC01415051099A
:1011A000DCCFCA0157FD0796A3E095958795AA95D0
:1011B000E1F7A481B5818A9F90018B9F300D9A9FA2
:1011C000300D1124620F731F078CF0A1E02DE60F84
:1011D000F71F4770552721E030E001C0220F4A95E4
:1011E000EAF78081822B80830895CA0157FD079614
:1011F00033E0959587953A95E1F7A481B5818A9F6B
:1012000090018B9F300D9A9F300D1124620F731F38
:10121000078CF0A1E02DE60FF71F4770552781E0FE
:1012200090E001C0880F4A95EAF780959081892364
:10123000DACFCA0157FD079623E0959587952A9541
:10124000E1F7A481B5818A9F90018B9F300D9A9F11
:10125000300D1124620F731F078CF0A1E02DE60FF3
:10126000F71F4770552721E030E001C0220F4A9553
:10127000EAF780818227B7CF08958EBD00000DB4B4
:1012800007FEFDCF8EB508958CBD9DBD08950895D0
:10129000FC016370668B8481958126813781613082
:1012A00039F0633029F0918780873387228708954A
:1012B000318720879387828708952F923F924F929C
:1012C0005F926F927F928F929F92AF92BF92CF92D6
:1012D000DF92EF92FF920F931F93CF93DF93CDB7DF
:1012E000DEB76A970FB6F894DEBF0FBECDBF9A8FF8
:1012F000898F7A8369834A01D22E18870F83370139
:10130000BC2CDC0159962D913C915A972115310541
:1013100009F015C118968D919C9119976817790756
:101320000CF0D7C11A968D919C91481759070CF073
:10133000D0C14C2C512CB6E0CB9E600D711D1124F8
:101340007C876B87161617060CF0C3C1EA2DF0E0F8
:10135000FA87E98793E0EE0FFF1F9A95E1F7F88B84
:10136000EF87CF01840F951F181619060CF0B1C135
:10137000A98DBA8D58968C91811104C0BFEABD1514
:1013800008F4D394A98DBA8DED91FC911197028444
:10139000F385E02DCD010995B5E0DB9EC001112458
:1013A000E981FA81FC83EB83312C212C9C012859A3
:1013B0003F4F388F2F8B4A2D50E05E8B4D8BEF893E
:1013C000F88DE20DF31D44919E828D82D12CC12CAB
:1013D00069817A81620D731D7A8B698B842F90E00D
:1013E0009C8B8B8BE98DFA8DA081B18140FF82C0EF
:1013F000F1E0BF126FC0AF126DC01C96ED91FC9171
:101400002F813885A4014C0D5D1D69897A89898DEC
:101410009A8D0995EB89FC89F595E7954E2F5FEF3D
:10142000C51AD50A6D817E818D899E89680F791FC5
:101430007E836D8398E0C916D10481F6AFEF2A1A36
:101440003A0AEB81FC81E40DF51DFC83EB83F5E0AA
:101450002F16310409F0B3CF2F81388526153705B3
:10146000B9F0A98DBA8DED91FC91B1E0BB1257C0D6
:10147000AB1255C069817A816B5F7F4F0088F1891B
:10148000E02D830128E030E0A401898D9A8D099533
:10149000A98DBA8DED91FC9111970688F789E02D01
:1014A000CD016A960FB6F894DEBF0FBECDBFDF91B7
:1014B000CF911F910F91FF90EF90DF90CF90BF9051
:1014C000AF909F908F907F906F905F904F903F90E4
:1014D0002F9009941E96ED91FC91EF80F884098578
:1014E0001A8592014D815E816B817C81898D9A8DF7
:1014F000099590CF2F8138852615370509F48ACFB5
:1015000031E0B31207C0A31205C01C96ED91FC9107
:10151000930178CF1E96ED91FC917301E0CF6B851E
:101520007C85641975090684F785E02D73010F85A4
:1015300018899201A401898D9A8D0995A9CFF90185
:1015400034969491329745915491D91AB7E0DB9E25
:10155000400D511D1124F901259134913C8B2B8BA9
:10156000FA0125903490FA013296749031963491B4
:10157000398B329664903196449041E04C1518F0C6
:101580004A1508F07FC0662D062C000C770B7C8373
:101590006B83842D042C000C990B9E838D83A98D65
:1015A000BA8DED91FC9111970284F385E02DCD0168
:1015B0000995512CD12CC12CEA2DF0E0FA87E9874E
:1015C0002B2D30E03C872B87A401440D511D47FC97
:1015D0005A95588F4F8B69817A81660D711D67FC12
:1015E0007A957E876D877989C71608F051CF2C2DA3
:1015F00030E04D815E81420F531FA985BA854A9F15
:10160000C0014B9F900D5A9F900D1124FC01E80DD5
:10161000F91DF88BEF87852D612C4F89588D420F6E
:10162000531F5E8B4D8B671408F050C044244394C5
:10163000480E877041F4C1010196EB89FC89E20DE7
:10164000F31DD4901C01D7FE19C0A98DBA8DED9160
:10165000FC91662D70E0B1E0BB1219C0AB1217C04F
:101660002D853E85620F731F0484F585E02D2F8143
:1016700038854D895E89898D9A8D0995DD0C639435
:10168000842DD1CF1E821D821C821B8288CF4B816C
:101690005C81640F751FAB85BC856A9FC0016B9F21
:1016A000900D7A9F900D112469817A81680F791FBE
:1016B0000684F785E02DEF80F88409851A859D0161
:1016C0004F855889898D9A8D0995D8CF570CC39429
:1016D0008ACF6A960FB6F894DEBF0FBECDBFDF91FA
:1016E000CF911F910F91FF90EF90DF90CF90BF901F
:1016F000AF909F908F907F906F905F904F903F90B2
:101700002F9008958F929F92AF92CF92EF92FF9277
:101710000F931F93CF93DF93EC01262F898D9A8D22
:10172000009709F051C06A30D1F41D861C868D895E
:1017300048E0849F900111248E859F85820F931F1E
:101740009F878E8781E090E0DF91CF911F910F916D
:10175000FF90EF90CF90AF909F908F9008956D3055
:1017600089F3CC88AD888F898823C1F08C859D85CD
:1017700036E0C39E800D911D112448855985481778
:10178000590764F44E855F851D861C8638E0A39E4C
:10179000C0011124840F951F9F878E87EA88FB88DC
:1017A000088919894E855F856C857D85CE010E94EB
:1017B0005D092C898C859D8546E0249F800D911DB7
:1017C00011249D878C87BECF6A3069F41D861C86E4
:1017D000FC013896E4912D898E859F85E29F800DCE
:1017E000911D1124ADCF6D3009F4ACCFFC013496BE
:1017F0003491631708F4A6CF3296E491E61708F403
:10180000A1CFFC01329685909490462F431B342F34
:1018100047E0349F800C911C1124F40132963491DE
:101820003196E4913323A9F1EE2399F1CC88F401A8
:101830003596E491AD884F89442301F10E2E000CBA
:10184000FF0BE30FF11DCE9EA001CF9E500D112482
:101850006C857D85460F571F6885798564177507E8
:101860006CF44E855F851D861C86FC013896E491DC
:10187000AE9E400D511D11245F874E87EA88FB887C
:10188000088919894E855F856C857D85CE010E940A
:101890005D09F4013496E4912C898C859D85E29F45
:1018A000800D911D11248DCF6F927F928F929F9208
:1018B000AF92BF92CF92DF92EF92FF920F931F935E
:1018C000CF93DF93EC016B015A0139014801E881A4
:1018D000F9810284F385E02D0995E881F981028878
:1018E000F389E02D87019301A501B601CE01099589
:1018F000A501480D591D41505109E881F98102881F
:10190000F389E02D9301B601CE010995E881F981B3
:101910000088F189E02D9401A501B601CE01099559
:10192000C60CD71CB60161507109E881F9810088A5
:10193000F189E02D9401A501CE010995E881F98195
:101940000688F789E02DCE01DF91CF911F910F918D
:10195000FF90EF90DF90CF90BF90AF909F908F90CF
:101960007F906F9009946F927F928F929F92AF9227
:10197000BF92CF92DF92EF92FF920F931F93CF937C
:10198000DF935C01EB016A01490138018701DC0149
:10199000ED91FC916217730719F5641675062CF02A
:1019A000962D872D3A01C92ED82E96012619370972
:1019B0002F5F3F4F048CF58DE02DA301BE01C501C3
:1019C0000995DF91CF911F910F91FF90EF90DF90DC
:1019D000CF90BF90AF909F908F907F906F90089521
:1019E0004615570591F42617370724F0892D4B012A
:1019F000C22FD82F9E01281939092F5F3F4F068C1F
:101A0000F78DE02DA601B401DACF0284F385E02D35
:101A10000995D501ED91FC910488F589E02D8301AC
:101A20009401A601BE01C5010995D501ED91FC9176
:101A30000688F789E02DC501DF91CF911F910F91A5
:101A4000FF90EF90DF90CF90BF90AF909F908F90DE
:101A50007F906F900994EF92FF920F931F93DC0198
:101A60001A960D911C911B9718962D913C911997E0
:101A7000ED91FC9100A0F1A1E02D7B0150E040E050
:101A800070E060E009951F910F91FF90EF9008952D
:101A90004F925F926F927F928F929F92AF92BF927E
:101AA000CF92DF92EF92FF920F931F93CF93DF932A
:101AB0006C012B015A0139014801DC01ED91FC91C7
:101AC0000284F385E02D0995E201640C751CD601B2
:101AD000ED91FC91C615D7055CF40088F189E02DE5
:101AE00087019401A501BE01C60109952196EFCF9A
:101AF0000688F789E02DC601DF91CF911F910F91E4
:101B0000FF90EF90DF90CF90BF90AF909F908F901D
:101B10007F906F905F904F9009948F929F92AF92B9
:101B2000BF92CF92DF92EF92FF920F931F93CF93CA
:101B3000DF93EC015B014A016901E881F9810284CC
:101B4000F385E02D099595012C0D3D1D215031099E
:101B5000E881F9810488F589E02D78018401A401E8
:101B6000B501CE010995E881F9810688F789E02D54
:101B7000CE01DF91CF911F910F91FF90EF90DF90F9
:101B8000CF90BF90AF909F908F9009948F929F922B
:101B9000AF92BF92CF92DF92EF92FF920F931F937B
:101BA000CF93DF93EC015B014A0169017801E88181
:101BB000F9810284F385E02D0995C80CD91C8601B2
:101BC00001501109E881F9810488F589E02D95011A
:101BD000A401B501CE010995E881F9810688F7894C
:101BE000E02DCE01DF91CF911F910F91FF90EF90EB
:101BF000DF90CF90BF90AF909F908F900994EF921D
:101C0000FF920F931F93DC01ED91FC9100A0F1A1D5
:101C1000E02D09951F910F91FF90EF9008950F937C
:101C20001F93DC01ED91FC91068CF78DE02D099559
:101C30001F910F9108950F931F93DC01ED91FC917B
:101C4000048CF58DE02D09951F910F910895DC010D
:101C5000ED91FC910084F185E02D09943F924F9223
:101C60005F926F927F928F929F92AF92BF92CF922C
:101C7000DF92EF92FF920F931F93CF93DF935C015C
:101C80007B014A016901390187E0680E711C93E00C
:101C9000759467949A95E1F72B01400E511E10E060
:101CA00000E0312CD0E0C0E0CE0187709927330CE2
:101CB000892B59F4FE0183E0F595E7958A95E1F7C4
:101CC000E00FF11FE80DF91D349037FE0AC021E046
:101CD00030E0A701B5016C0F7D1F82EA92E00E94FF
:101CE000270E2196CC16DD06F9F68FEFE81AF80AD2
:101CF000060D171DE414F504A9F6DF91CF911F918D
:101D00000F91FF90EF90DF90CF90BF90AF909F909A
:101D10008F907F906F905F904F903F9008952F929B
:101D20003F924F925F926F927F928F929F92AF926B
:101D3000BF92CF92DF92EF92FF920F931F93CF93B8
:101D4000DF9300D000D000D0CDB7DEB73C016A01F0
:101D50003E832D83FC82EB825801A41AB50AB7FE9C
:101D600003C0B194A194B1088D809E80861A970A11
:101D700097FE03C09194819491088A149B045CF0AF
:101D8000902F812F0D811E819D838E839C2D8D2D03
:101D90006B01692F782F0C151D055CF09D818E81DC
:101DA0007E836D83692F782F902F812F8601C92E16
:101DB000D82E1601201A310A2B012D813E81421A9C
:101DC000530A57FE03C0519441945108710137FEE4
:101DD00003C03FEFE31AF30AF594E7948D819E81E7
:101DE000861797075CF5A1E0B0E0BA83A983C01617
:101DF000D1064CF1D301ED91FC910484F585E02DE1
:101E00002B813C81A8016D817E818A149B041CF08A
:101E10004D815E81B801C3010995E418F508F7FE0C
:101E20000AC02D813E8189819A81280F391F3E8306
:101E30002D83E20CF31C0F5F1F4FD9CF2FEF3FEF25
:101E40003A832983D4CF26960FB6F894DEBF0FBE0F
:101E5000CDBFDF91CF911F910F91FF90EF90DF9059
:101E6000CF90BF90AF909F908F907F906F905F903A
:101E70004F903F902F900895089520913002260FA3
:101E80003327331F21323105ECF420915402FC0139
:101E900090E080E0243069F082E00895A091300263
:101EA0002191AC01405F5D4FA40FB52FB11D2C9364
:101EB0000196861798F380913002680F6093300284
:101EC00080E0089581E008951092540281E08093AB
:101ED00056021092550261E082E10E94250661E0FF
:101EE00083E10E942506E9EBF0E080818E7F80830C
:101EF00080818D7F808388E48093B80085E480931F
:101F0000BC000895CF93DF9391E090930F02882354
:101F1000B9F0C091B800D091BA008091BC008A7B22
:101F20008093BC0060E082E10E94250660E083E1CE
:101F30000E9425060E94640FD093BA00C093B80097
:101F4000DF91CF910895E091890280918802E8178E
:101F500030F4F0E0E651FE4F808190E008958FEF7D
:101F60009FEF089590918902809188022FEF3FEFB3
:101F7000981748F4E92FF0E0E651FE4F208130E059
:101F80009F5F90938902C901089580918802909182
:101F90008902891B990B0895CF92DF92EF92FF92ED
:101FA0000F931F93CF93DF937C01CB018A01209184
:101FB0009502222389F0EB016B01C40ED51ECC15CE
:101FC000DD0569F06991D701ED91FC910190F081F7
:101FD000E02DC7010995F3CF642F0E943D0FC80182
:101FE000DF91CF911F910F91FF90EF90DF90CF90F5
:101FF0000895CF93DF931F92CDB7DEB76983209109
:1020000095022223F9F020919202203258F021E02B
:1020100030E0FC013383228390E080E00F90DF9179
:10202000CF91089580919302E82FF0E0E653FE4FA0
:10203000998190838F5F809393028093920281E0D5
:1020400090E0ECCF61E0CE0101960E943D0FF7CF0A
:10205000CF92DF92EF92FF920F931F93CF93DF9374
:10206000D091920281E0D13208F09CC0C0919402DC
:102070000E948F066B017C018091540281116CC01B
:1020800082E08093540281E0809356028FEF809328
:10209000530210927802D0937702AAECB1E0E7E500
:1020A000F2E080E0D8138DC010927902809179021D
:1020B000CC0FC82BC093790280915502813009F072
:1020C00084C0109255020E948F066B017C018091A2
:1020D00079028093BB0080910B0290910C02A09139
:1020E0000D02B0910E02892B8A2B8B2BA1F00E943E
:1020F0008F0600910B0210910C0220910D0230917D
:102100000E026C197D098E099F090617170728070B
:10211000390708F442C08091BC0083FDD8CF85EC1C
:102120008093BC000E948F066B017C018091540259
:10213000823009F44CC0809153028F3F09F469C08A
:1021400080915302803209F466C08091530280333B
:1021500009F463C084E026C080910B0290910C02C8
:10216000A0910D02B0910E02892B8A2B8B2B09F4C2
:1021700083CF0E948F0600910B0210910C022091D8
:102180000D0230910E026C197D098E099F09061708
:1021900017072807390708F06FCF80910A020E94BD
:1021A000820F85E010929302109292021092950293
:1021B000DF91CF911F910F91FF90EF90DF90CF9023
:1021C00008959D9191938F5F6DCF85EEA9CF8091FA
:1021D0000B0290910C02A0910D02B0910E02892B7E
:1021E0008A2B8B2B09F4A2CF0E948F0600910B0241
:1021F00010910C0220910D0230910E026C197D0994
:102200008E099F09061717072807390708F08ECF90
:10221000C4CF80E0C7CF82E0C5CF83E0C3CFEF92C9
:10222000FF920F931F93CF93DF937C01C62F809172
:10223000BF029091C002009709F459C02091C302D7
:1022400031E0309395022093940210929302109201
:102250009202DC01ED91FC910190F081E02D60E0B3
:1022600009958701EE24E394F12CD1E0C1508091CF
:10227000BF029091C002CF3F91F1B0E2EB16F104A2
:10228000D8F00E9428108091BF029091C002209146
:10229000C302D0939502209394021092930210925D
:1022A0009202DC01ED91FC910190F081E02D60E063
:1022B0000995EE24E394F12C8091BF029091C00225
:1022C000F8016491DC01ED91FC910190F081E02D29
:1022D0000995BFEFEB1AFB0A0F5F1F4FC7CFDF91C6
:1022E000CF911F910F91FF90EF900C942810E091E7
:1022F000CF02F091D00290818091D5028095892300
:1023000080838701C15008F438C0F801849120917E
:10231000BD023091BE02232B29F00E943D090F5FC0
:102320001F4FF0CF28E030E040E8E091CB02F09181
:10233000CC029091D302582F5423D9F05081952B81
:102340009083E091CD02F091CE0290815091D40221
:10235000952B9083E091CD02F091CE025081909127
:10236000D402909595239083469521503109E9F642
:10237000D6CF508190959523E3CFDF91CF911F91D8
:102380000F91FF90EF9008951F93CF93DF93EC018F
:102390008D8D9E8D009721F1162F29A131E030936C
:1023A0009502209394021092930210929202DC0103
:1023B000ED91FC910190F081E02D60E009958D8D0B
:1023C0009E8DDC01ED91FC910190F081E02D612F5B
:1023D00009958D8D9E8DDF91CF911F910C942810C2
:1023E000ADA5BEA59C918BA9809589238C938B8DDF
:1023F0009C8D892B31F0862FDF91CF911F910C940A
:102400003D0928E030E080E8A9A5BAA599A9462FA2
:102410004823C1F04C91942B9C93ABA5BCA59C91F7
:102420004AA9942B9C93ABA5BCA54C919AA99095D5
:1024300094239C9386952150310931F7DF91CF91F8
:102440001F9108954C9190959423E6CFDF92EF92DF
:10245000FF920F931F93CF93DF938091BF029091D0
:10246000C002892B09F498C02091D7023091D8027C
:102470004091D9025091DA0260E074E284EF90E07A
:102480000E942B1B2051310941095109569547954E
:10249000379527952093B80065E082E59AE00E9481
:1024A0000F116091A602615082EA92E00E94C4116D
:1024B0002091A8023091A902C901079697FD0796BD
:1024C00033E0959587953A95E1F72091A6023091F2
:1024D000A702829F8001839F100D929F100D1124EF
:1024E000C091C102D091C2028091BF029091C002FE
:1024F0000C0F1D1F009709F48FC02091C30231E01B
:1025000030939502209394021092930210929202BB
:10251000DC01ED91FC910190F081E02D60E40995E2
:10252000EE24E394F12CDD24D3948091BF029091AA
:10253000C0020C171D0709F446C0B0E2EB16F10407
:10254000D8F00E9428108091BF029091C002209183
:10255000C302D0929502209394021092930210929B
:102560009202DC01ED91FC910190F081E02D60E49C
:102570000995EE24E394F12C8091BF029091C00262
:102580006991DC01ED91FC910190F081E02D0995BC
:10259000BFEFEB1AFB0AC9CF8091BD029091BE023A
:1025A000892B31F08091E0029091E1020E94440970
:1025B000E091D102F091D20290818091D602809573
:1025C0008923808369CF0E9428108091BF02909157
:1025D000C002892B09F461C02091DB023091DC023A
:1025E0004091DD025091DE0260E074E284EF90E001
:1025F0000E942B1B205131094109510956954795DD
:10260000379527952093B800DF91CF911F910F91B7
:10261000FF90EF90DF900895E091CF02F091D0020B
:1026200080819091D502892B80830C171D0769F258
:1026300089912091BD023091BE02232B19F00E9496
:102640003D09F3CF28E030E040E8E091CB02F09183
:10265000CC029091D302582F5423D9F05081952B5E
:102660009083E091CD02F091CE0290815091D402FE
:10267000952B9083E091CD02F091CE025081909104
:10268000D402909595239083469521503109E9F61F
:10269000CCCF508190959523E3CFE091D102F0917A
:1026A000D20280819091D602892B8083ADCF1F9377
:1026B000CF93DF93EC01162F8D8D9E8D892BB1F179
:1026C0002DA93EA94FA958AD60E074E284EF90E0D7
:1026D0000E942B1B205131094109510956954795FC
:1026E000379527952093B80066EA111167EACE0165
:1026F0000E94C4118D8D9E8D892B41F129AD3AAD7B
:102700004BAD5CAD60E074E284EF90E00E942B1B67
:10271000205131094109510956954795379527951B
:102720002093B800DF91CF911F9108958B8D9C8DE0
:10273000892B21F08EAD9FAD0E944409EFA5F8A929
:1027400090818CA9809589238083CECFEFA5F8A9AD
:1027500080819CA9892B8083E5CF90E080E008955B
:102760002091A8023091A902C901079697FD07960A
:1027700023E0959587952A95E1F72091A60230915F
:10278000A702829FA001839F500D929F500D11249C
:1027900070E060E08091C1029091C2020C949C1C98
:1027A0008F929F92AF92BF920F931F93CF93DF931D
:1027B000CDB7DEB7A1970FB6F894DEBF0FBECDBF81
:1027C00019A2423008F44AE08E010F5D1F4F842E9B
:1027D000912CB12CA12CA50194010E942B1BE62F5A
:1027E000B901CA01EA3044F5E05DD801EE938D01EC
:1027F000232B242B252B79F790E080E0109769F0AC
:10280000FD0101900020E9F73197AF014A1B5B0BF6
:10281000BD0182EA92E00E94CF05A1960FB6F8941E
:10282000DEBF0FBECDBFDF91CF911F910F91BF9043
:10283000AF909F908F900895E95CD7CFFC010190F5
:102840000020E9F73197AF01481B590BBC0182EA20
:1028500092E00C94CF050E94971C85ED8093BC00FC
:1028600080910B0290910C02A0910D02B0910E028A
:102870000796A11DB11D23E0B695A795979587955D
:102880002A95D1F72091BC0024FD03C01092540278
:10289000089540910B0250910C0260910D027091CD
:1028A0000E02452B462B472B69F30097A105B10576
:1028B00041F02AE22A95F1F700C00197A109B10978
:1028C000E1CF80910A020C94820F1F920F920FB6F3
:1028D0000F9211242F933F938F939F93AF93BF93A6
:1028E00080917B0290917C02A0917D02B0917E024A
:1028F00030917A0223E0230F2D3758F50196A11D60
:10290000B11D20937A0280937B0290937C02A09366
:102910007D02B0937E0280917F0290918002A0910F
:102920008102B09182020196A11DB11D80937F02A8
:1029300090938002A0938102B0938202BF91AF91E5
:102940009F918F913F912F910F900FBE0F901F90ED
:10295000189526E8230F0296A11DB11DD2CF1F9214
:102960000F920FB60F9211242F933F934F935F93C3
:102970006F937F938F939F93AF93BF93EF93FF9347
:102980008091B900887F803609F44AC0F0F588321A
:1029900009F4A7C018F5803109F49BC0B8F4882366
:1029A00009F4F9C0883009F494C0FF91EF91BF9108
:1029B000AF919F918F917F916F915F914F913F91D7
:1029C0002F910F900FBE0F901F901895883109F42A
:1029D00088C0803251F78093530214C0803409F4C8
:1029E0009DC040F48033B9F38833F9F680935302E5
:1029F00085ECB0C0803509F485C0883509F496C0EF
:102A0000883499F60E942D14D0CF883909F48CC0EF
:102A100038F5883729F050F4883611F0803729F6D8
:102A200083E0809354021092520257C0883809F410
:102A30007BC0803919F0803809F0B7CF80915202FD
:102A4000803208F071C0E091520281E08E0F8093D5
:102A500052028091BB00F0E0EE5CFD4F80833DC0F0
:102A6000803B39F0E0F4803A09F479C0883A09F003
:102A70009CCF84E080935402109231021092300275
:102A8000E0918602F09187020995809130028111D0
:102A90000FC081E0809330021092100209C0803C88
:102AA00009F4A6CF883C09F4A3CF883B09F07DCF79
:102AB000E091310281E08E0F80933102F0E0E05F1F
:102AC000FD4F80818093BB00909131028091300254
:102AD00029C0809179028093BB0085EC8093BC0073
:102AE00064CF9091780280917702981758F5E09121
:102AF000780281E08E0F80937802F0E0E95AFD4F72
:102B00008081E9CFE091780281E08E0F8093780296
:102B10008091BB00F0E0E95AFD4F808390917802EC
:102B2000809177029817C8F285E8D8CFE0917802B3
:102B300081E08E0F809378028091BB00F0E0E95A2B
:102B4000FD4F80838091560281115CCF81E080939C
:102B5000550284EA8093BC001092540226CF85EC83
:102B60008093BC001092540280915202803230F463
:102B7000E0915202F0E0EE5CFD4F10826091520253
:102B800070E0E0918402F091850282E392E0099581
:102B9000109252020ACF1092530234CF109299022F
:102BA0001092980288EE93E0A0E0B0E080939A0241
:102BB00090939B02A0939C02B0939D028CE091E0C5
:102BC00090939702809396021092E3021092EA0289
:102BD0001092F1021092F2021092F3021092F4029B
:102BE00081E08093F0028093ED021092EE0292E079
:102BF0009093EF028093E20283E090E09093E702EB
:102C00008093E6020E94721B9093EC028093EB0289
:102C1000009709F4A6C023E0FC0111922A95E9F778
:102C200081E090E09093E5028093E40283E090E0FD
:102C30009093E9028093E8028091E302882341F0B7
:102C400061E083E00E94530660E083E00E94250675
:102C5000E8E7FAE0E491F0E0EE0FFF1FE559F54FE9
:102C6000859194919093F6028093F502EAE5FAE05B
:102C7000E491E093F7021092A5021092A40220E8DA
:102C800030E03093A7022093A60280E490E0909376
:102C9000A9028093A8023093AB022093AA029093DA
:102CA000AD028093AC021092B8021092AF02109263
:102CB000AE021092B1021092B00281E08093B7028E
:102CC0008093B6022FEF3FEF3093B5022093B4020A
:102CD0003093B3022093B2028093B9021092BA02E9
:102CE0001092BC021092BB028EE191E09093A3027D
:102CF0008093A2021092BE021092BD0286E992E079
:102D00009093C0028093BF021092C2021092C1023F
:102D10008FEF8093C6028093C7028093C80280938E
:102D2000C9028093CA0280E89AE1A6E0B0E08093ED
:102D3000D7029093D802A093D902B093DA0280EA26
:102D400096E8A1E0B0E08093DB029093DC02A093D0
:102D5000DD02B093DE0280E58093E0021092E10292
:102D600008951092E7021092E6021092E502109286
:102D7000E4025CCF789484B5826084BD84B58160C0
:102D800084BD85B5826085BD85B5816085BD809136
:102D90006E00816080936E001092810080918100AE
:102DA00082608093810080918100816080938100A6
:102DB000809180008160809380008091B100846068
:102DC0008093B1008091B00081608093B0008091C9
:102DD0007A00846080937A0080917A008260809388
:102DE0007A0080917A00816080937A0080917A00E5
:102DF000806880937A001092C1001092890210922C
:102E0000880210929302109292020E94640F8DEC3D
:102E100095E090938702809386028EEC95E09093E4
:102E20008502809384028091C1029091C202892B15
:102E300011F10E94B0132091A8023091A902809153
:102E4000A6029091A702213231050CF08FC0B90182
:102E50006052710977FF02C06F5F7F4F759567956C
:102E60008357910997FD019600E210E023E730E0D7
:102E700044E955E08EC02091A8023091A902C90111
:102E8000079697FD0796B3E095958795BA95E1F774
:102E90002091A6023091A702AC01429FC001439F3E
:102EA000900D529F900D11240E94721B9093C202AC
:102EB0008093C102892B09F0BCCF81E090E0909310
:102EC000B5028093B4029093B3028093B2028093D0
:102ED000B6028093B70262E084E00E9453060E942B
:102EE000B0138091E8029091E90297FD08C061E07B
:102EF0000E94530660E08091E8020E94250681E06E
:102F00008093E3022AE0222E312C30E0E32E30E0E1
:102F1000F32ECC24C394D12CC4E1D0E05DE2A52EE5
:102F2000B12C92E0892E99249394E2E4FAE0849102
:102F3000EBE5FAE00491E9E7FAE0149111110CC213
:102F40000E94B01364E670E080E090E00E94B40656
:102F500080910001909101010196873091050CF05C
:102F6000DBC2909301018093000105C2B901605456
:102F7000710977FF02C06F5F7F4F75956795825526
:102F8000910997FD019600E410E022E530E044E766
:102F900057E0959587950E942E0E82E08093C4029B
:102FA0008091BF029091C002892B09F4DFC08CE3AD
:102FB0008093C302109289021092880210929302A9
:102FC000109292020E94640F8DEC95E0909387021C
:102FD000809386028EEC95E0909385028093840224
:102FE0008091CA0287FD1EC061E00E94530661E025
:102FF0008091CA020E94250661E070E080E090E0C6
:103000000E94B40660E08091CA020E9425066AE030
:1030100070E080E090E00E94B40661E08091CA0216
:103020000E9425068091BF029091C002892B09F46D
:103030005CC12091D7023091D8024091D9025091C1
:10304000DA0260E074E284EF90E00E942B1B2051D2
:103050003109410951095695479537952795209390
:10306000B80064E080E995E00E940F116091A80229
:10307000615082EA92E00E94C41164E08CE895E01D
:103080000E940F118091C40264E1813009F460E173
:1030900082EA92E00E94C41164E088E895E00E9410
:1030A0000F118FE88093DF028091A6029091A70212
:1030B0008038910509F032C18091A8029091A9024F
:1030C0008034910509F03AC18091C402813009F43D
:1030D00023C18FEC8093DF02C2E16AED82EA92E0C5
:1030E0000E94C4116C2F82EA92E00E94C41161E830
:1030F00082EA92E00E94C4116091DF0282EA92E0CB
:103100000E94C41169ED82EA92E00E94C41180918C
:10311000C40261EF813009F462E282EA92E00E9427
:10312000C41166E082E895E00E940F118091BF0211
:103130009091C002892B09F405C12091DB023091E6
:10314000DC024091DD025091DE0260E074E284EF27
:1031500090E00E942B1B20513109410951095695DD
:103160004795379527952093B800A7CE61E08091C9
:10317000C8020E94530661E08091C9020E94530672
:103180008091C802082E000C990BFC01EB58F54FFA
:10319000E491F0E0EE0FFF1FE559F54F25913491D2
:1031A0003093D0022093CF02FC01E95AF54FE4910D
:1031B000E093D5028091C902082E000C990BFC0106
:1031C000EB58F54FE491F0E0EE0FFF1FE559F54F96
:1031D000A591B491B093D202A093D102FC01E95A17
:1031E000F54FE491E093D6028C91E82BEC9380911B
:1031F000BD029091BE02892B09F434C0CFB7F89478
:1032000080918302811127C0EFE7FAE08491E1E623
:10321000FAE09491E82FF0E0EE0FFF1FE858FA4F24
:10322000A591B491EC91E92321F461E08AE00E9438
:10323000250661E08AE00E9453068CB580618CBD52
:103240008CB580648CBD61E08DE00E94530661E026
:103250008BE00E945306809183028F5F80938302EC
:10326000CFBFBECE61E08091C6020E94530661E0EE
:103270008091C7020E9453068091C602082E000C5E
:10328000990BFC01EB58F54FE491F0E0EE0FFF1FB6
:10329000E559F54F259134913093CC022093CB0220
:1032A000FC01E95AF54FE491E093D3028091C70203
:1032B000082E000C990BFC01EB58F54FE491F0E05F
:1032C000EE0FFF1FE559F54FA591B491B093CE02D3
:1032D000A093CD02FC01E95AF54FE491E093D402AA
:1032E0008C91E095E823EC937BCE8091BD02909188
:1032F000BE02892B31F08091E0029091E1020E94A0
:103300004409E091D102F091D20290818091D602DD
:10331000809589238083A5CE8FE9DCCE8036910508
:1033200069F48091A8029091A902409739F48091A4
:10333000C402813029F08FEA8093DF02C2E0CDCE53
:1033400080E1FACFE091D102F091D2028081909198
:10335000D602892B8083B1CD81110E94FC05E12F1B
:10336000F0E0EE0FFF1FEC5CF54FA591B4918C914E
:10337000082309F4E5CD3092AF022092AE021092FC
:10338000B1021092B00286E491E00E941E14809176
:103390000001909101018330910509F405C10CF001
:1033A000C0C08130910509F4D8C0029709F4E9C082
:1033B00010928E0210928F0210929002109291023F
:1033C00010928A0210928B0210928C0210928D023F
:1033D00068EE73E080E090E00E94B40604E610E03E
:1033E000F0E4F0937C0080917A00806480937A000E
:1033F00080917A0086FDFCCF409078005090790053
:10340000052C000C6608770880918E0290918F023F
:10341000A0919002B0919102480E591E6A1E7B1E27
:1034200040928E0250928F026092900270929102AE
:1034300061E070E080E090E00E94B4060150110964
:1034400079F6C301B20124E630E040E050E00E948A
:103450004D1B032E000C440B550B20938A02309316
:103460008B0240938C0250938D020E94B0131092F5
:10347000AF021092AE021092B1021092B00287EA2F
:1034800091E00E941E141092AF021092AE02D093EF
:10349000B102C093B0028092B6028092B70240900F
:1034A0008A0250908B0260908C0270908D024AE0EC
:1034B000C301B20177FE0DC06DE282EA92E00E9484
:1034C000820B66277727CB0164197509860997094E
:1034D0004AE00E94D0139092B6029092B7021092E6
:1034E000AF021092AE02B092B102A092B00284EB91
:1034F00091E00E941E140E94261260E177E280E0B3
:1035000090E00E94B4060E94B013E114F10409F4A3
:103510000CCD0E94000005CDD0920101C0920001A7
:103520002ACF8530910509F465C00CF450C0069788
:1035300009F03ECF1092AF021092AE02D093B102CA
:10354000C093B00288E991E00E941E140E942612E6
:103550006FEF70E080E090E011C01092AF02109227
:10356000AE02D093B102C093B00287E591E00E9411
:103570001E140E94261261E670E0CB010E947205C3
:1035800017CF1092AF021092AE02D093B102C09347
:10359000B00285E691E00E941E140E94261260E0AF
:1035A00070E08FEF90E0EACF1092AF021092AE027F
:1035B000D093B102C093B00280E791E00E941E1444
:1035C0000E94261260E07FEF80E090E0D7CF10925B
:1035D000AF021092AE02D093B102C093B0028CE75A
:1035E00091E00E941E140E9426126FEF7FEF80E090
:1035F00090E0C4CF1092AF021092AE02D093B1020D
:10360000C093B0028AE891E00E941E140E94261224
:103610006FEF7FE780E090E0B1CF8EE191E0909393
:10362000A3028093A2028091C1029091C2020097EE
:1036300011F00E940E1C8091EB029091EC020E940E
:103640000E1C8091E8029091E90297FD03C060E0B2
:103650000C9453060895A1E21A2EAA1BBB1BFD0170
:103660000DC0AA1FBB1FEE1FFF1FA217B307E40761
:10367000F50720F0A21BB30BE40BF50B661F771FB9
:10368000881F991F1A9469F7609570958095909599
:103690009B01AC01BD01CF010895052E97FB1EF4DF
:1036A00000940E94641B57FD07D00E942B1B07FC4F
:1036B00003D04EF40C94641B5095409530952195A1
:1036C0003F4F4F4F5F4F089590958095709561954E
:1036D0007F4F8F4F9F4F0895EE0FFF1F0590F4917E
:1036E000E02D09940F931F93CF93DF9382309105C0
:1036F00010F482E090E0E091FA02F091FB0230E0F9
:1037000020E0B0E0A0E0309799F42115310509F4EC
:103710004AC0281B390B24303105D8F58A819B819A
:103720006115710589F1FB0193838283FE0111C04C
:10373000408151810281138148175907E0F04817F1
:10374000590799F4109761F012960C9312971396FB
:103750001C933296CF01DF91CF911F910F91089565
:103760000093FA021093FB02F4CF2115310551F0BA
:103770004217530738F0A901DB019A01BD01DF01AF
:10378000F801C1CFEF01F9CF9093FB028093FA02C9
:10379000CDCFFE01E20FF31F8193919322503109A7
:1037A00039832883D7CF2091F8023091F902232B57
:1037B00041F420910401309105013093F9022093E6
:1037C000F80220910201309103012115310541F4E5
:1037D0002DB73EB74091060150910701241B350BD0
:1037E000E091F802F091F902E217F307A0F42E1B22
:1037F0003F0B2817390778F0AC014E5F5F4F241755
:10380000350748F04E0F5F1F5093F9024093F802BE
:10381000819391939FCFF0E0E0E09CCFCF93DF9333
:103820000097E9F0FC01329713821282A091FA020C
:10383000B091FB02ED0130E020E01097A1F420816F
:103840003181820F931F2091F8023091F9022817DD
:10385000390709F061C0F093F902E093F802DF91B3
:10386000CF910895EA01CE17DF07E8F54A815B8121
:103870009E0141155105B1F7E901FB83EA834991A6
:103880005991C40FD51FEC17FD0761F48081918118
:103890000296840F951FE901998388838281938121
:1038A0009B838A83F0E0E0E012968D919C911397C0
:1038B0000097B9F52D913C911197CD010296820F99
:1038C000931F2091F8023091F9022817390739F631
:1038D000309751F51092FB021092FA02B093F90260
:1038E000A093F802BCCFD383C28340815181840F5F
:1038F000951FC817D90761F44E5F5F4F8881998182
:10390000480F591F518340838A819B81938382830F
:103910002115310509F0B0CFF093FB02E093FA02D4
:103920009ECFFD01DC01C0CF13821282D7CF81E090
:1039300090E0F8940C94A31CDC0101C06D934150FD
:103940005040E0F7089515E0C6E4D5E004C0FE015C
:103950000E946C1B2196C734D107C9F7F894FFCF9A
:1039600001000000FC02800000000000F90FCC0FF5
:10397000AD137105C50FB20FA30F00000000820B3D
:10398000CF05AD133C0F8D087105270EFF0D1B0EE3
:103990000F0E8F0E710548095713FD074608480D95
:1039A0002B0DB30C540C436F722073656C65636907
:1039B0006F6E6164613A0056696F6C6574612033A3
:1039C00038306E6D00417A756C203434306E6D0085
:1039D0005665726465203530306E6D00416D6172E0
:1039E000656C6F203538306E6D004C6172616E6AA7
:1039F00061203630306E6D005665726D656C686F93
:103A0000203730306E6D0020204C6569747572610E
:103A10003A202000416E6F74652E2041706167610D
:0A3A200020656D2031307321000095
:107E0000112484B714BE81FFF0D085E080938100F7
:107E100082E08093C00088E18093C10086E0809377
:107E2000C20080E18093C4008EE0C9D0259A86E02C
:107E300020E33CEF91E0309385002093840096BBD3
:107E4000B09BFECF1D9AA8958150A9F7CC24DD24C4
:107E500088248394B5E0AB2EA1E19A2EF3E0BF2EE7
:107E6000A2D0813461F49FD0082FAFD0023811F036
:107E7000013811F484E001C083E08DD089C08234E0
:107E800011F484E103C0853419F485E0A6D080C0E4
:107E9000853579F488D0E82EFF2485D0082F10E0AE
:107EA000102F00270E291F29000F111F8ED06801E7
:107EB0006FC0863521F484E090D080E0DECF843638
:107EC00009F040C070D06FD0082F6DD080E0C81688
:107ED00080E7D80618F4F601B7BEE895C0E0D1E017
:107EE00062D089930C17E1F7F0E0CF16F0E7DF06D8
:107EF00018F0F601B7BEE89568D007B600FCFDCFD4
:107F0000A601A0E0B1E02C9130E011968C91119780
:107F100090E0982F8827822B932B1296FA010C0160
:107F200087BEE89511244E5F5F4FF1E0A038BF0790
:107F300051F7F601A7BEE89507B600FCFDCF97BE46
:107F4000E89526C08437B1F42ED02DD0F82E2BD052
:107F50003CD0F601EF2C8F010F5F1F4F84911BD097
:107F6000EA94F801C1F70894C11CD11CFA94CF0C13
:107F7000D11C0EC0853739F428D08EE10CD085E9AC
:107F80000AD08FE07ACF813511F488E018D01DD067
:107F900080E101D065CF982F8091C00085FFFCCF94
:107FA0009093C60008958091C00087FFFCCF809118
:107FB000C00084FD01C0A8958091C6000895E0E648
:107FC000F0E098E1908380830895EDDF803219F02E
:107FD00088E0F5DFFFCF84E1DECF1F93182FE3DFCA
:107FE0001150E9F7F2DF1F91089580E0E8DFEE27F6
:047FF000FF270994CA
:027FFE00040479
:00000001FF
